:100000000C9434000C9446000C9446000C9446006A
:100010000C9446000C9446000C9446000C94460048
:100020000C9446000C9446000C9446000C94B000CE
:100030000C9446000C9446000C9446000C94460028
:100040000C9446000C9446000C9446000C94460018
:100050000C9446000C9446000C9446000C94460008
:100060000C9446000C94460011241FBECFEFD8E03C
:10007000DEBFCDBF21E0A0E0B1E001C01D92A23003
:10008000B207E1F70E9448000C94BF000C940000F6
:100090000E9450000E949E0078940E945800FDCF5C
:1000A00084B5836884BD85B5816085BD569A089501
:1000B000109201011092000180E090E087BD8FE76F
:1000C0009EE30197F1F700C000008091000190913C
:1000D0000101019690930101809300018F3F9105EA
:1000E00069F364F39FEF23ED80E39150204080405B
:1000F000E1F700C000008FEF90E090930101809342
:10010000000187BD8FE79EE30197F1F700C0000073
:1001100080910001909101010197909301018093DA
:100120000001992374F717BC9FEF23ED80E39150F2
:1001300020408040E1F700C000000895E1E8F0E0D1
:1001400080818D608083EFE6F0E080818260808333
:1001500089E09DE39093890080938800579A0895E1
:100160001F920F920FB60F9211245F9902C05F9AEF
:1001700001C05F980F900FBE0F901F901895F894D4
:02018000FFCFAF
:00000001FF
