:100000000C947F000C9422010C949C000C949C0096
:100010000C949C000C949C000C949C000C949C00F0
:100020000C949C000C9472020C949C000C94F502AD
:100030000C949C000C949C000C949C000C949C00D0
:100040000C949C000C949C000C9434020C949C0026
:100050000C949C000C94CC010C949C000C949C007F
:100060000C949C000C949C00B700C000C900D40004
:10007000DF00E800F300FC0007010F0107634236D0
:10008000B79BD8A71A39685618AEBAAB558C1D3C29
:10009000B7CC5763BD6DEDFD753EF6177231BF00ED
:1000A0000000803F08000000BE922449123EABAA27
:1000B000AA2ABECDCCCC4C3E00000080BEABAAAA82
:1000C000AA3E00000000BF000000803F00000000CA
:1000D00000084178D3BB4387D1133D190E3CC3BD03
:1000E0004282AD2B3E68EC8276BED98FE1A93E4CB0
:1000F00080EFFFBE01C4FF7F3F000000000011241D
:100100001FBECFEFD8E0DEBFCDBF11E0A0E0B1E071
:10011000E4E2FEE002C005900D92A230B107D9F7EB
:1001200021E0A2E0B1E001C01D92AA30B207E1F7E0
:100130000E9449020C9410070C94000084B18F6057
:1001400084B987B18E6187B9089552985A9AE9E6C1
:10015000F0E0808182608083E89A08958A3091057A
:1001600008F067C0FC01EC5CFF4F0C94F606289881
:10017000419885B18E6085B988B18C6188B9089540
:1001800085B1887F85B988B1857E88B92B9A429AD6
:100190000895299888B1897F88B985B18D6085B91E
:1001A00088B1886188B90895299888B18D7E88B909
:1001B00085B18D6085B988B18C6088B908952A9819
:1001C00088B1857E88B985B18B6085B9429A0895DA
:1001D0002B9888B18D7E88B985B1876085B988B143
:1001E0008C6088B908952B98419885B1876085B94E
:1001F00088B18C6188B9089585B18C7F85B988B143
:10020000857E88B985B18C6085B9429A08954198F8
:1002100085B18F6085B988B18C6188B9089588B13E
:100220008D7E88B985B18F6085B988B18C6088B9B9
:10023000089542982B9885B1876085B988B18A6105
:1002400088B908951F920F920FB60F9211242F9321
:100250003F934F935F936F937F938F939F93AF934E
:10026000BF93EF93FF9380910001909101010E9451
:10027000AE00809100019091010101968A309105B4
:100280002CF4909301018093000104C010920101AD
:1002900010920001FF91EF91BF91AF919F918F91CB
:1002A0007F916F915F914F913F912F910F900FBE72
:1002B0000F901F90189517B8EAE7F0E080818F68DB
:1002C0008083ACE7B0E08C9180648C93259A808128
:1002D000806480830895EF92FF920F931F93CF93D2
:1002E000DF9320E030E040E251E40E945F040E948E
:1002F0009603AB01BC018A01CA0109964397A0F09D
:10030000842F952FC1E0D0E02AE030E02196B9019A
:100310000E94E206862F972F675F7F4F633171053A
:10032000A8F7209719F42EC0C1E0D0E00F2EFAE014
:10033000EF2EF12CF02D2197BE010D2E000C880B15
:10034000990B0E94CE039B01AC0160E070E080E25B
:1003500091E40E94CC040E949603AB01BC01C80149
:10036000BA010E94E206CB01B7010E94E206805D5D
:100370000E942C02C130D10519F48EE20E942C0299
:100380002097C9F68AE00E942C02DF91CF911F913D
:100390000F91FF90EF9008951F920F920FB60F925A
:1003A00011242F933F934F935F936F937F938F937A
:1003B0009F93AF93BF93EF93FF93609178007091F9
:1003C000790080E090E00E94CC0320E030E040E83B
:1003D0005AE30E945F0420E030E44CE955E40E94B7
:1003E0005F0420E030E040E251E40E942403609387
:1003F000060170930701809308019093090120E0A2
:1004000030E04AE052E40E945A04882314F02D9A06
:1004100001C02D98EAE7F0E0808180648083FF913D
:10042000EF91BF91AF919F918F917F916F915F916C
:100430004F913F912F910F900FBE0F901F901895E5
:100440009093C5008093C40088E98093C1008EE03A
:100450008093C200249A0895E0ECF0E0908195FF2B
:10046000FDCF8093C60008951F920F920FB60F9292
:1004700011248F938091C600813611F42C9A03C009
:10048000833709F42C988F910F900FBE0F901F9017
:1004900018950E945F020E94E3020E94670287E6AD
:1004A00090E00E9420020E945B010E949E000E9438
:1004B000A500789480E090E00E94AE00FFCF84B564
:1004C000816884BD85B5816085BD569A0895E1EB4C
:1004D000F0E0808187608083E0E7F0E080818160E8
:1004E000808308951F920F920FB60F9211242F93BD
:1004F0003F938F939F938091040190910501019602
:100500009093050180930401209102013091030131
:1005100021303105F9F01CF4232B41F04BC022307F
:10052000310529F123303105B1F144C087B58C5F25
:1005300087BD8091040190910501CD97D9F581E0A7
:1005400090E09093030180930201109205011092B4
:10055000040130C0CD9771F582E090E090930301E3
:1005600080930201109205011092040123C087B507
:10057000845087BD8091040190910501CD97D1F4FD
:1005800083E090E0909303018093020110920501B3
:10059000109204010FC017BC8091040190910501D5
:1005A000CD9741F4109203011092020110920501BF
:1005B000109204019F918F913F912F910F900FBE48
:1005C0000F901F901895E1E8F0E080818D608083A6
:1005D000EFE6F0E080818260808389E09DE3909384
:1005E000890080938800579A08951F920F920FB642
:1005F0000F9211242F933F934F935F936F937F93A9
:100600008F939F93AF93BF93EF93FF9360910601F6
:100610007091070180910801909109010E946B017E
:100620008BB180588BB9FF91EF91BF91AF919F91A2
:100630008F917F916F915F914F913F912F910F908B
:100640000FBE0F901F9018950E9438030C94200441
:100650000E94190458F00E94120440F029F45F3FF0
:1006600029F00C94090451110C9454040C940F04B7
:100670000E94310468F39923B1F3552391F3951B3C
:10068000550BBB27AA2762177307840738F09F5FB3
:100690005F4F220F331F441FAA1FA9F335D00E2E20
:1006A0003AF0E0E832D091505040E695001CCAF78D
:1006B0002BD0FE2F29D0660F771F881FBB1F261750
:1006C00037074807AB07B0E809F0BB0B802DBF0127
:1006D000FF2793585F4F3AF09E3F510578F00C94F6
:1006E00009040C9454045F3FE4F3983ED4F38695D8
:1006F00077956795B795F7959F5FC9F7880F911D17
:100700009695879597F90895E1E0660F771F881F02
:10071000BB1F621773078407BA0720F0621B730BB5
:10072000840BBA0BEE1F88F7E09508950E949D0395
:100730006894B1110C94540408950E94390488F00F
:100740009F5798F0B92F9927B751B0F0E1F0660F95
:10075000771F881F991F1AF0BA95C9F714C0B130D6
:1007600091F00E945304B1E008950C945304672F54
:10077000782F8827B85F39F0B93FCCF38695779505
:100780006795B395D9F73EF49095809570956195EE
:100790007F4F8F4F9F4F0895E89409C097FB3EF419
:1007A00090958095709561957F4F8F4F9F4F9923BE
:1007B000A9F0F92F96E9BB279395F695879577953C
:1007C0006795B795F111F8CFFAF4BB0F11F460FFFC
:1007D0001BC06F5F7F4F8F4F9F4F16C0882311F054
:1007E00096E911C0772321F09EE8872F762F05C068
:1007F000662371F096E8862F70E060E02AF09A9503
:10080000660F771F881FDAF7880F9695879597F9F7
:10081000089597F99F6780E870E060E008959FEF82
:1008200080EC089500240A94161617061806090687
:10083000089500240A941216130614060506089556
:10084000092E0394000C11F4882352F0BB0F40F4DE
:10085000BF2B11F460FF04C06F5F7F4F8F4F9F4F1E
:10086000089557FD9058440F551F59F05F3F71F0A0
:100870004795880F97FB991F61F09F3F79F0879507
:100880000895121613061406551FF2CF4695F1DF90
:1008900008C0161617061806991FF1CF8695710520
:1008A000610508940895E894BB2766277727CB0154
:1008B00097F908950E94560508F48FEF08950E9455
:1008C00072040C9420040E94120438F00E9419044F
:1008D00020F0952311F00C9409040C940F041124BA
:1008E0000C9454040E94310470F3959FC1F3950F4A
:1008F00050E0551F629FF001729FBB27F00DB11DA4
:10090000639FAA27F00DB11DAA1F649F6627B00D33
:10091000A11D661F829F2227B00DA11D621F739F1C
:10092000B00DA11D621F839FA00D611D221F749F2A
:100930003327A00D611D231F849F600D211D822F71
:10094000762F6A2F11249F5750409AF0F1F0882398
:100950004AF0EE0FFF1FBB1F661F771F881F9150C5
:100960005040A9F79E3F510580F00C9409040C9467
:1009700054045F3FE4F3983ED4F3869577956795EA
:10098000B795F795E7959F5FC1F7FE2B880F911DEF
:100990009695879597F90895FA01EE0FFF1F309607
:1009A00021053105A1F16115710561F48038BFE3BE
:1009B0009B0749F168949038810561F08038BFEF5A
:1009C0009B0741F099234AF5FF3FE10531052105D9
:1009D00019F1E8940894E795D901AA2329F4AB2FDB
:1009E000BE2FF85FD0F310C0FF5F70F4A695E0F75C
:1009F000F73950F019F0FF3A38F49F779F930DD0F4
:100A00000F9007FC9058089546F00C940F0460E096
:100A100070E080E89FE308954FE79F775F934F93DF
:100A20003F932F930E94EB052F913F914F915F9140
:100A30000E945F040C94240529F416F00C94090418
:100A40000C9453040C940F040E943904A8F39638B4
:100A5000A0F707F80F92E8942BE33AEA48EB5FE738
:100A60000E9475040F920F920F924DB75EB70F92CE
:100A70000E943306ECE7F0E00E947A054F915F9107
:100A8000EF91FF91E595EE1FFF1F49F0FE57E068DB
:100A90004427EE0F441FFA95E1F74195550B0E944C
:100AA000AD050F9007FE0C94A1050895990F00085D
:100AB000550FAA0BE0E8FEEF16161706E807F90730
:100AC000C0F012161306E407F50798F0621B730BCB
:100AD000840B950B39F40A2661F0232B242B252B4C
:100AE00021F408950A2609F4A140A6958FEF811DEF
:100AF000811D0895DF93CF931F930F93FF92EF9281
:100B0000DF927B018C01689406C0DA2EEF010E940F
:100B10007204FE01E894A591259135914591559176
:100B2000A6F3EF010E947F06FE019701A801DA9467
:100B300069F7DF90EF90FF900F911F91CF91DF91B8
:100B400008959B01AC0160E070E080E89FE30C94A5
:100B500024030C9409040C94D4060E943904D8F39D
:100B60009923C9F3940F511DA3F39150504094F071
:100B700059F0882332F0660F771F881F915050403C
:100B8000C1F79E3F51052CF7880F911D96958795CB
:100B900097F908955F3FACF0983E9CF0BB2786958F
:100BA00077956795B79508F4B1609395C1F7BB0F3A
:100BB00058F711F460FFE8CF6F5F7F4F8F4F9F4F63
:100BC000E3CF0C94540416F00C94D4060C940F0448
:100BD00068940C9409040E943904A8F39923C1F382
:100BE000AEF3DF93CF931F930F93FF92C92FDD27AF
:100BF00088232AF02197660F771F881FDAF720E0F5
:100C000030E040E85FEB9FE3883920F0803E38F029
:100C100021968F770E946806E4EAF0E004C00E9403
:100C20006806E1EDF0E00E947A058B01BE01EC015F
:100C3000FB2E6F5771097595771F880B990B0E94D2
:100C4000CE0328E132E741E35FE30E947204AF2D57
:100C50009801AE01FF900F911F91CF91DF910E94FB
:100C60007F060C942004FA01DC01AA0FBB1F9B0134
:100C7000AC01BF5728F4222733274427507820C0DF
:100C8000B75190F4AB2F0024469537952795011C5A
:100C9000A395D2F3002071F0220F331F441FB395A8
:100CA000DAF30ED00C94670661307105A0E88A076C
:100CB000B94630F49B01AC016627772788279078E6
:100CC000309621F020833183428353830895505816
:100CD000BB27AA270E947F060C9420040E941204BE
:100CE00038F00E94190420F039F49F3F19F426F4DB
:100CF0000C940F040EF4E095E7FB0C940904E92F23
:100D00000E94310458F3BA176207730784079507E6
:100D100020F079F4A6F50C9453040EF4E0950B2E14
:100D2000BA2FA02D0B01B90190010C01CA01A0013D
:100D30001124FF27591B99F0593F50F4503E68F198
:100D40001A16F040A22F232F342F4427585FF3CFD9
:100D5000469537952795A795F0405395C9F77EF4AA
:100D60001F16BA0B620B730B840BBAF09150A1F0F3
:100D7000FF0FBB1F661F771F881FC2F70EC0BA0F79
:100D8000621F731F841F48F4879577956795B79501
:100D9000F7959E3F08F0B0CF9395880F08F09927FC
:100DA000EE0F9795879508959F3F31F0915020F46D
:100DB000879577956795B795880F911D9695879537
:100DC00097F9089597FB072E16F4009407D077FD46
:100DD00009D00E94FC0607FC05D03EF49095819551
:100DE0009F4F0895709561957F4F0895EE0FFF1FF7
:100DF0000590F491E02D0994AA1BBB1B51E107C09B
:100E0000AA1FBB1FA617B70710F0A61BB70B881F9A
:100E1000991F5A95A9F780959095BC01CD01089529
:040E2000F894FFCF74
:020E24000100CB
:00000001FF
