:100000000C9434000C9451000C9451000C94510049
:100010000C9451000C9451000C9451000C9451001C
:100020000C9451000C9429010C9451000C941F0164
:100030000C9451000C9451000C9451000C945100FC
:100040000C9451000C9451000C9451000C945100EC
:100050000C9451000C9451000C9451000C945100DC
:100060000C9451000C94510011241FBECFEFD8E026
:10007000DEBFCDBF11E0A0E0B1E0E6E9F2E002C0F2
:1000800005900D92AE30B107D9F721E0AEE0B1E0B6
:1000900001C01D92A231B207E1F70E9485000C94C5
:1000A00049010C9400009093C5008093C40088E936
:1000B0008093C1008EE08093C200249A0895E0EC02
:1000C000F0E0908195FFFDCF8093C60008950F93D7
:1000D0001F93CF93DF93FC01808181110AC010C070
:1000E0008991882369F00E945F00C017D107C1F78A
:1000F00007C08F010E945F00E80121961395F0CFA1
:10010000DF91CF911F910F910895CF93DF93CDB7DA
:10011000DEB72D970FB6F894DEBF0FBECDBF0E949D
:10012000B4000E9402010E94140187E690E00E9440
:1001300053008DE0E0E0F1E0DE01119601900D92B8
:100140008A95E1F7789400E010E0EE24E394F12C36
:100150000E94BC0001151105D9F7CE0101960E943D
:1001600067000E2D1F2DF4CF84B5836884BD85B53F
:10017000816085BD569A0895109211011092100168
:1001800080E090E087BD8FE79EE30197F1F700C024
:10019000000080911001909111010196909311013E
:1001A000809310018F3F910569F364F39FEF23ED76
:1001B00080E3915020408040E1F700C000008FEFC5
:1001C00090E0909311018093100187BD8FE79EE32B
:1001D0000197F1F700C0000080911001909111018A
:1001E00001979093110180931001992374F717BC24
:1001F0009FEF23ED80E3915020408040E1F700C065
:1002000000000895E1E8F0E080818D608083EFE6F2
:10021000F0E080818260808389E09DE39093890093
:1002200080938800579A0895E1EBF0E08081876021
:100230008083E0E7F0E080818160808308951F92F1
:100240000F920FB60F9211240F900FBE0F901F90B8
:1002500018951F920F920FB60F9211248F939F93B0
:1002600080910E0190910F01019690930F01809360
:100270000E01CD9739F48BB180588BB910920F01D4
:1002800010920E019F918F910F900FBE0F901F90B3
:060290001895F894FFCF61
:0E02960048656C6C6F20576F726C642100001D
:00000001FF
