:100000000C9434000C9446000C9446000C9446006A
:100010000C9446000C9446000C9446000C94460048
:100020000C9446000C94C7000C9446000C94BD0040
:100030000C9446000C9446000C9446000C94460028
:100040000C9446000C9446000C9446000C94460018
:100050000C9446000C9446000C9446000C94460008
:100060000C9446000C94460011241FBECFEFD8E03C
:10007000DEBFCDBF21E0A0E0B1E001C01D92A43001
:10008000B207E1F70E9448000C94E7000C940000CE
:100090000E9452000E94A0000E94B20078940E9428
:1000A0005A00FDCF84B5836884BD85B5816085BD68
:1000B000569A0895109203011092020180E090E098
:1000C00087BD8FE79EE30197F1F700C000008091A4
:1000D0000201909103010196909303018093020124
:1000E0008F3F910569F364F39FEF23ED80E3915017
:1000F00020408040E1F700C000008FEF90E0909337
:1001000003018093020187BD8FE79EE30197F1F71A
:1001100000C000008091020190910301019790932B
:10012000030180930201992374F717BC9FEF23ED1D
:1001300080E3915020408040E1F700C00000089526
:10014000E1E8F0E080818D608083EFE6F0E080817F
:100150008260808389E09DE390938900809388008A
:10016000579A0895E1EBF0E0808187608083E0E7B3
:10017000F0E080818160808308951F920F920FB616
:100180000F9211240F900FBE0F901F9018951F9281
:100190000F920FB60F9211248F939F9380910001BD
:1001A0009091010101969093010180930001CD97F8
:1001B00039F48BB180588BB9109201011092000173
:1001C0009F918F910F900FBE0F901F901895F894EC
:0201D000FFCF5F
:00000001FF
